{
  "_format": "hh-sol-artifact-1",
  "contractName": "WavePortal",
  "sourceName": "contracts/WavePortal.sol",
  "abi": [
    {
      "inputs": [],
      "stateMutability": "payable",
      "type": "constructor"
    },
    {
      "anonymous": false,
      "inputs": [
        {
          "indexed": false,
          "internalType": "address",
          "name": "indexedFrom",
          "type": "address"
        },
        {
          "indexed": false,
          "internalType": "uint256",
          "name": "timeStamp",
          "type": "uint256"
        },
        {
          "indexed": false,
          "internalType": "string",
          "name": "message",
          "type": "string"
        }
      ],
      "name": "NewWave",
      "type": "event"
    },
    {
      "inputs": [],
      "name": "getAllWaves",
      "outputs": [
        {
          "components": [
            {
              "internalType": "address",
              "name": "waver",
              "type": "address"
            },
            {
              "internalType": "string",
              "name": "message",
              "type": "string"
            },
            {
              "internalType": "uint256",
              "name": "timeStamp",
              "type": "uint256"
            }
          ],
          "internalType": "struct WavePortal.Wave[]",
          "name": "",
          "type": "tuple[]"
        }
      ],
      "stateMutability": "view",
      "type": "function"
    },
    {
      "inputs": [],
      "name": "getTotalWaves",
      "outputs": [
        {
          "internalType": "uint256",
          "name": "",
          "type": "uint256"
        }
      ],
      "stateMutability": "view",
      "type": "function"
    },
    {
      "inputs": [
        {
          "internalType": "address",
          "name": "",
          "type": "address"
        }
      ],
      "name": "lastWavedAt",
      "outputs": [
        {
          "internalType": "uint256",
          "name": "",
          "type": "uint256"
        }
      ],
      "stateMutability": "view",
      "type": "function"
    },
    {
      "inputs": [],
      "name": "numWaves",
      "outputs": [
        {
          "internalType": "uint256",
          "name": "",
          "type": "uint256"
        }
      ],
      "stateMutability": "view",
      "type": "function"
    },
    {
      "inputs": [
        {
          "internalType": "address",
          "name": "",
          "type": "address"
        }
      ],
      "name": "nwaves",
      "outputs": [
        {
          "internalType": "uint256",
          "name": "",
          "type": "uint256"
        }
      ],
      "stateMutability": "view",
      "type": "function"
    },
    {
      "inputs": [
        {
          "internalType": "string",
          "name": "_message",
          "type": "string"
        }
      ],
      "name": "wave",
      "outputs": [],
      "stateMutability": "nonpayable",
      "type": "function"
    }
  ],
  "bytecode": "0x60806040526200004f6040518060400160405280601681526020017f5761766520706f7274616c20636f6e74727563746f72000000000000000000008152506200007760201b620007d41760201c565b606444426200005f9190620001c4565b6200006b919062000261565b60018190555062000308565b62000117816040516024016200008e919062000184565b6040516020818303038152906040527f41304fac000000000000000000000000000000000000000000000000000000007bffffffffffffffffffffffffffffffffffffffffffffffffffffffff19166020820180517bffffffffffffffffffffffffffffffffffffffffffffffffffffffff83818316178352505050506200011a60201b60201c565b50565b60008151905060006a636f6e736f6c652e6c6f679050602083016000808483855afa5050505050565b60006200015082620001a8565b6200015c8185620001b3565b93506200016e8185602086016200022b565b6200017981620002f7565b840191505092915050565b60006020820190508181036000830152620001a0818462000143565b905092915050565b600081519050919050565b600082825260208201905092915050565b6000620001d18262000221565b9150620001de8362000221565b9250827fffffffffffffffffffffffffffffffffffffffffffffffffffffffffffffffff0382111562000216576200021562000299565b5b828201905092915050565b6000819050919050565b60005b838110156200024b5780820151818401526020810190506200022e565b838111156200025b576000848401525b50505050565b60006200026e8262000221565b91506200027b8362000221565b9250826200028e576200028d620002c8565b5b828206905092915050565b7f4e487b7100000000000000000000000000000000000000000000000000000000600052601160045260246000fd5b7f4e487b7100000000000000000000000000000000000000000000000000000000600052601260045260246000fd5b6000601f19601f8301169050919050565b61144a80620003186000396000f3fe608060405234801561001057600080fd5b50600436106100625760003560e01c8063449d46c01461006757806349175ada146100835780639a2cdc08146100a1578063a42a4663146100bf578063bd43a908146100ef578063ec6e9df11461010d575b600080fd5b610081600480360381019061007c9190610c52565b61013d565b005b61008b6105c1565b604051610098919061110c565b60405180910390f35b6100a9610608565b6040516100b6919061110c565b60405180910390f35b6100d960048036038101906100d49190610c29565b610653565b6040516100e6919061110c565b60405180910390f35b6100f761066b565b6040516101049190610f93565b60405180910390f35b61012760048036038101906101229190610c29565b6107bc565b604051610134919061110c565b60405180910390f35b42603c600460003373ffffffffffffffffffffffffffffffffffffffff1673ffffffffffffffffffffffffffffffffffffffff1681526020019081526020016000205461018a91906111f9565b106101ca576040517f08c379a00000000000000000000000000000000000000000000000000000000081526004016101c1906110ec565b60405180910390fd5b42600460003373ffffffffffffffffffffffffffffffffffffffff1673ffffffffffffffffffffffffffffffffffffffff1681526020019081526020016000208190555060016002600082825461022191906111f9565b925050819055506102676040518060400160405280600d81526020017f25732068617320776176656421000000000000000000000000000000000000008152503361086d565b6102a66040518060400160405280601181526020017f5265636569766564206d6573736167653a00000000000000000000000000000081525082610909565b6001600360003373ffffffffffffffffffffffffffffffffffffffff1673ffffffffffffffffffffffffffffffffffffffff16815260200190815260200160002060008282546102f691906111f9565b92505081905550600560405180606001604052803373ffffffffffffffffffffffffffffffffffffffff16815260200183815260200142815250908060018154018082558091505060019003906000526020600020906003020160009091909190915060008201518160000160006101000a81548173ffffffffffffffffffffffffffffffffffffffff021916908373ffffffffffffffffffffffffffffffffffffffff16021790555060208201518160010190805190602001906103bc929190610b09565b50604082015181600201555050606460015442446103da91906111f9565b6103e491906111f9565b6103ee91906112ff565b6001819055507f5f7e16dc676677766a70e9c5628aa6c54ddb8b6e5188e2ae1e1f17f1ffbea71633428360405161042793929190610f55565b60405180910390a160326001541161057c5761047b6040518060400160405280601281526020017f257320776f6e21207c20736565643a2025730000000000000000000000000000815250336001546109a5565b6000655af3107a40009050478111156104c9576040517f08c379a00000000000000000000000000000000000000000000000000000000081526004016104c0906110ac565b60405180910390fd5b60003373ffffffffffffffffffffffffffffffffffffffff16826040516104ef90610f40565b60006040518083038185875af1925050503d806000811461052c576040519150601f19603f3d011682016040523d82523d6000602084013e610531565b606091505b5050905080610575576040517f08c379a000000000000000000000000000000000000000000000000000000000815260040161056c906110cc565b60405180910390fd5b50506105be565b6105bd6040518060400160405280601781526020017f4469646e742077696e206c6f74746f207c20736565643a000000000000000000815250600154610a44565b5b50565b6000600360003373ffffffffffffffffffffffffffffffffffffffff1673ffffffffffffffffffffffffffffffffffffffff16815260200190815260200160002054905090565b600061064b6040518060400160405280601681526020017f5765206861766520256420746f74616c20776176657300000000000000000000815250600254610a44565b600254905090565b60046020528060005260406000206000915090505481565b60606005805480602002602001604051908101604052809291908181526020016000905b828210156107b357838290600052602060002090600302016040518060600160405290816000820160009054906101000a900473ffffffffffffffffffffffffffffffffffffffff1673ffffffffffffffffffffffffffffffffffffffff1673ffffffffffffffffffffffffffffffffffffffff168152602001600182018054610718906112cd565b80601f0160208091040260200160405190810160405280929190818152602001828054610744906112cd565b80156107915780601f1061076657610100808354040283529160200191610791565b820191906000526020600020905b81548152906001019060200180831161077457829003601f168201915b505050505081526020016002820154815250508152602001906001019061068f565b50505050905090565b60036020528060005260406000206000915090505481565b61086a816040516024016107e89190610fb5565b6040516020818303038152906040527f41304fac000000000000000000000000000000000000000000000000000000007bffffffffffffffffffffffffffffffffffffffffffffffffffffffff19166020820180517bffffffffffffffffffffffffffffffffffffffffffffffffffffffff8381831617835250505050610ae0565b50565b6109058282604051602401610883929190610fd7565b6040516020818303038152906040527f319af333000000000000000000000000000000000000000000000000000000007bffffffffffffffffffffffffffffffffffffffffffffffffffffffff19166020820180517bffffffffffffffffffffffffffffffffffffffffffffffffffffffff8381831617835250505050610ae0565b5050565b6109a1828260405160240161091f929190611045565b6040516020818303038152906040527f4b5c4277000000000000000000000000000000000000000000000000000000007bffffffffffffffffffffffffffffffffffffffffffffffffffffffff19166020820180517bffffffffffffffffffffffffffffffffffffffffffffffffffffffff8381831617835250505050610ae0565b5050565b610a3f8383836040516024016109bd93929190611007565b6040516020818303038152906040527f07c81217000000000000000000000000000000000000000000000000000000007bffffffffffffffffffffffffffffffffffffffffffffffffffffffff19166020820180517bffffffffffffffffffffffffffffffffffffffffffffffffffffffff8381831617835250505050610ae0565b505050565b610adc8282604051602401610a5a92919061107c565b6040516020818303038152906040527f9710a9d0000000000000000000000000000000000000000000000000000000007bffffffffffffffffffffffffffffffffffffffffffffffffffffffff19166020820180517bffffffffffffffffffffffffffffffffffffffffffffffffffffffff8381831617835250505050610ae0565b5050565b60008151905060006a636f6e736f6c652e6c6f679050602083016000808483855afa5050505050565b828054610b15906112cd565b90600052602060002090601f016020900481019282610b375760008555610b7e565b82601f10610b5057805160ff1916838001178555610b7e565b82800160010185558215610b7e579182015b82811115610b7d578251825591602001919060010190610b62565b5b509050610b8b9190610b8f565b5090565b5b80821115610ba8576000816000905550600101610b90565b5090565b6000610bbf610bba84611158565b611127565b905082815260208101848484011115610bd757600080fd5b610be284828561128b565b509392505050565b600081359050610bf9816113fd565b92915050565b600082601f830112610c1057600080fd5b8135610c20848260208601610bac565b91505092915050565b600060208284031215610c3b57600080fd5b6000610c4984828501610bea565b91505092915050565b600060208284031215610c6457600080fd5b600082013567ffffffffffffffff811115610c7e57600080fd5b610c8a84828501610bff565b91505092915050565b6000610c9f8383610ed2565b905092915050565b610cb08161124f565b82525050565b610cbf8161124f565b82525050565b6000610cd082611198565b610cda81856111bb565b935083602082028501610cec85611188565b8060005b85811015610d285784840389528151610d098582610c93565b9450610d14836111ae565b925060208a01995050600181019050610cf0565b50829750879550505050505092915050565b6000610d45826111a3565b610d4f81856111d7565b9350610d5f81856020860161129a565b610d68816113ec565b840191505092915050565b6000610d7e826111a3565b610d8881856111e8565b9350610d9881856020860161129a565b610da1816113ec565b840191505092915050565b6000610db96034836111e8565b91507f547279696e6720746f207769746864726177206d6f7265206d6f6e657920746860008301527f616e2074686520636f6e7472616374206861732e0000000000000000000000006020830152604082019050919050565b6000610e1f6018836111e8565b91507f4661696c656420746f207769746864726177206d6f6e657900000000000000006000830152602082019050919050565b6000610e5f6000836111cc565b9150600082019050919050565b6000610e796021836111e8565b91507f576169742031206d696e757465206265666f726520776176696e67206167616960008301527f6e000000000000000000000000000000000000000000000000000000000000006020830152604082019050919050565b6000606083016000830151610eea6000860182610ca7565b5060208301518482036020860152610f028282610d3a565b9150506040830151610f176040860182610f22565b508091505092915050565b610f2b81611281565b82525050565b610f3a81611281565b82525050565b6000610f4b82610e52565b9150819050919050565b6000606082019050610f6a6000830186610cb6565b610f776020830185610f31565b8181036040830152610f898184610d73565b9050949350505050565b60006020820190508181036000830152610fad8184610cc5565b905092915050565b60006020820190508181036000830152610fcf8184610d73565b905092915050565b60006040820190508181036000830152610ff18185610d73565b90506110006020830184610cb6565b9392505050565b600060608201905081810360008301526110218186610d73565b90506110306020830185610cb6565b61103d6040830184610f31565b949350505050565b6000604082019050818103600083015261105f8185610d73565b905081810360208301526110738184610d73565b90509392505050565b600060408201905081810360008301526110968185610d73565b90506110a56020830184610f31565b9392505050565b600060208201905081810360008301526110c581610dac565b9050919050565b600060208201905081810360008301526110e581610e12565b9050919050565b6000602082019050818103600083015261110581610e6c565b9050919050565b60006020820190506111216000830184610f31565b92915050565b6000604051905081810181811067ffffffffffffffff8211171561114e5761114d6113bd565b5b8060405250919050565b600067ffffffffffffffff821115611173576111726113bd565b5b601f19601f8301169050602081019050919050565b6000819050602082019050919050565b600081519050919050565b600081519050919050565b6000602082019050919050565b600082825260208201905092915050565b600081905092915050565b600082825260208201905092915050565b600082825260208201905092915050565b600061120482611281565b915061120f83611281565b9250827fffffffffffffffffffffffffffffffffffffffffffffffffffffffffffffffff0382111561124457611243611330565b5b828201905092915050565b600061125a82611261565b9050919050565b600073ffffffffffffffffffffffffffffffffffffffff82169050919050565b6000819050919050565b82818337600083830152505050565b60005b838110156112b857808201518184015260208101905061129d565b838111156112c7576000848401525b50505050565b600060028204905060018216806112e557607f821691505b602082108114156112f9576112f861138e565b5b50919050565b600061130a82611281565b915061131583611281565b9250826113255761132461135f565b5b828206905092915050565b7f4e487b7100000000000000000000000000000000000000000000000000000000600052601160045260246000fd5b7f4e487b7100000000000000000000000000000000000000000000000000000000600052601260045260246000fd5b7f4e487b7100000000000000000000000000000000000000000000000000000000600052602260045260246000fd5b7f4e487b7100000000000000000000000000000000000000000000000000000000600052604160045260246000fd5b6000601f19601f8301169050919050565b6114068161124f565b811461141157600080fd5b5056fea26469706673582212205e9a38610fc1c6eb93f92aabe657ec2c654f2aac2d478d3a37e205f35072283a64736f6c63430008000033",
  "linkReferences": {},
  "deployedLinkReferences": {}
}